:100000002C060020190C0000910C0000990C000037
:10001000A10C0000A10C0000A10C000000000000D9
:10002000000000000000000000000000A10C000023
:10003000A10C000000000000A10C0000A10C0000B9
:10004000A10C0000A10C0000A10C0000A10C0000FC
:10005000A10C0000A10C0000A10C0000A10C0000EC
:10006000A10C0000A10C0000A10C0000A10C0000DC
:10007000A10C0000A10C0000A10C0000A10C0000CC
:10008000A10C0000A10C0000A10C0000A10C0000BC
:10009000A10C0000A10C0000A10C0000A10C0000AC
:1000A000A10C0000A10C0000A10C0000A10C00009C
:1000B000A10C0000A10C0000A10C0000A10C00008C
:1000C000A10C0000A10C0000A10C0000A10C00007C
:1000D000A10C0000A10C0000A10C0000A10C00006C
:1000E000A10C00000000000000000000A10C0000B6
:1000F000A10C0000A10C0000A10C0000A10C00004C
:10010000A10C0000A10C0000A10C0000A10C00003B
:100110000000000000000000A10C0000A10C000085
:10012000A10C0000A10C0000A10C0000A10C00001B
:10013000A10C0000A10C0000A10C0000A10C00000B
:1001400000000000000000000000000000000000AF
:10015000A10C0000A10C0000A10C0000A10C0000EB
:10016000000000000000000000000000000000008F
:10017000000000000000000000000000000000007F
:10018000000000000000000000000000000000006F
:10019000000000000000000000000000000000005F
:1001A000000000000000000000000000000000004F
:1001B000A10C0000A10C0000A10C0000A10C00008B
:1001C000A10C0000A10C0000A10C0000A10C00007B
:1001D000A10C0000A10C0000A10C0000A10C00006B
:1001E000A10C0000A10C0000A10C00000000000008
:1001F00000000000A10C0000A10C0000A10C0000F8
:10020000A10C0000A10C0000000000000000000094
:10021000A10C0000A10C0000A10C0000A10C00002A
:10022000A10C0000A10C0000A10C0000A10C00001A
:10023000A10C0000A10C0000A10C0000A10C00000A
:10024000A10C0000A10C0000A10C0000A10C0000FA
:10025000A10C0000A10C0000A10C0000A10C0000EA
:10026000A10C0000A10C0000A10C000080B500AFA3
:1002700040F60100CFF2000000F0E6FD4FF4A04090
:10028000C4F20000FF2100F0D0FD4CF2503000F02D
:10029000F3FD4FF4A040C4F200000121002200F061
:1002A000C1FD4FF4A040C4F20000F021302200F064
:1002B000B9FD4FF4A040C4F200000221022200F078
:1002C000B1FD0A2000F0D8FD4FF4A040C4F20000B8
:1002D0000221002200F0A6FD4CF2503000F0CCFDCF
:1002E0004FF4A040C4F20000F021302200F09AFD4B
:1002F0004FF4A040C4F200000221022200F092FD5F
:100300000A2000F0B9FD4FF4A040C4F20000022121
:10031000002200F087FD4CF2503000F0ADFD4FF4AC
:10032000A040C4F20000F021302200F07BFD4FF429
:10033000A040C4F200000221022200F073FD0A2056
:1003400000F09AFD4FF4A040C4F200000221002208
:1003500000F068FD4CF2503000F08EFD4FF4A040EC
:10036000C4F20000F021202200F05CFD4FF4A04018
:10037000C4F200000221022200F054FD0A2000F025
:100380007BFD4FF4A040C4F200000221002200F0E7
:1003900049FD4CF2503000F06FFD282000F012F8BB
:1003A000C02000F00FF8062000F00CF8802000F0CC
:1003B00009F8282000F006F80F2000F003F800F0FC
:1003C000EBF880BD80B582B000AF0346FB71FB79CE
:1003D00023F00F03DBB24FF4A040C4F20000F02181
:1003E0001A4600F01FFD4FF4A040C4F200000121A6
:1003F000002200F017FD4FF4A040C4F200000221DB
:10040000022200F00FFD4CF2503000F035FD4FF4A9
:10041000A040C4F200000221002200F003FD4CF2D3
:10042000503000F029FDFB791B01DBB24FF4A040F6
:10043000C4F20000F0211A4600F0F4FC4FF4A04092
:10044000C4F200000121002200F0ECFC4FF4A040B7
:10045000C4F200000221022200F0E4FC0A2000F0B5
:100460000BFD4FF4A040C4F200000221002200F076
:10047000D9FC4CF2503000F0FFFC0837BD4680BD7F
:1004800080B582B000AF0346FB71FB7923F00F0308
:10049000DBB24FF4A040C4F20000F0211A4600F095
:1004A000C1FC4FF4A040C4F200000121012200F081
:1004B000B9FC4FF4A040C4F200000221022200F077
:1004C000B1FC0A2000F0D8FC4FF4A040C4F20000B8
:1004D0000221002200F0A6FC4CF2503000F0CCFCCF
:1004E000FB791B01DBB24FF4A040C4F20000F02105
:1004F0001A4600F097FC4FF4A040C4F2000001211E
:10050000012200F08FFC4FF4A040C4F20000022151
:10051000022200F087FC0A2000F0AEFC4FF4A0405D
:10052000C4F200000221002200F07CFC4CF25030AA
:1005300000F0A2FC0837BD4680BD00BF80B582B088
:1005400000AF02460B46FA71BB7197F90730012BD9
:100550000FD197F906305A1ED3171B0F1A4402F019
:100560000F02D31ADBB2803BDBB21846FFF72AFF3B
:100570000EE097F906305A1ED3171B0F1A4402F0EB
:100580000F02D31ADBB2403BDBB21846FFF71AFF6B
:100590000837BD4680BD00BF80B500AF0120FFF722
:1005A00011FF0A2000F068FC80BD00BF80B582B05A
:1005B00000AF786007E07B685A1C7A601B78DBB27A
:1005C0001846FFF75DFF7B681B78002BF3D10837D7
:1005D000BD4680BD80B483B000AF4EF20813C4F2B4
:1005E0000F034EF20812C4F20F02126842F010021A
:1005F0001A604EF20813C4F20F031B687B604FF4BD
:100600008843C4F202034FF48842C4F20202126823
:1006100042F01E021A6044F22043C4F2020344F284
:100620002042C4F20202126822F01E021A6044F252
:100630001C53C4F2020344F21C52C4F202021268B8
:1006400042F01E021A600C37BD465DF8047B70470D
:1006500080B582B000AF44F2FC33C4F2020344F22E
:10066000FC32C4F20202126842F002021A6044F242
:10067000FC33C4F2020344F2FC32C4F202021268F8
:1006800022F004021A6044F2FC33C4F2020344F282
:10069000FC32C4F20202126822F008021A6044F22C
:1006A000FC33C4F2020344F2FC32C4F202021268C8
:1006B00022F010021A6000237B6002E07B680133A5
:1006C0007B607A6844F23F23C0F20F039A42F5D967
:1006D0004FF4A860C0F2C01000F0D2FBFFF7C6FDD7
:1006E0000C20FFF76FFE01200321FFF727FF40F6E4
:1006F000F070C0F20000FFF759FF00237B6002E0BA
:100700007B6801337B607A6841F2FF13C0F27A03A1
:100710009A42F5D902200221FFF710FF40F6FC7043
:10072000C0F20000FFF742FF00237B6002E07B681D
:1007300001337B607A6841F6FF23C0F2B7039A4227
:10074000F5D9FFF729FF44F2FC33C4F2020344F267
:10075000FC32C4F20202126822F002021A60083768
:10076000BD4680BD80B582B000AF44F2FC33C4F218
:10077000020344F2FC32C4F20202126842F00402A4
:100780001A6044F2FC33C4F2020344F2FC32C4F2B5
:100790000202126822F002021A6044F2FC33C4F230
:1007A000020344F2FC32C4F20202126822F0080290
:1007B0001A6044F2FC33C4F2020344F2FC32C4F285
:1007C0000202126822F010021A6000237B6002E02D
:1007D0007B6801337B607A6844F23F23C0F20F03E9
:1007E0009A42F5D94FF4A860C0F2C01000F048FB5F
:1007F000FFF73CFD0C20FFF7E5FD02200221FFF78B
:100800009DFE40F6FC70C0F20000FFF7CFFE002313
:100810007B6002E07B6801337B607A6841F2FF1302
:10082000C0F27A039A42F5D901200321FFF786FE30
:1008300040F6F070C0F20000FFF7B8FE00237B60C6
:1008400002E07B6801337B607A6841F6FF23C0F2E7
:10085000B7039A42F5D9FFF79FFE44F2FC33C4F286
:10086000020344F2FC32C4F20202126822F00402D3
:100870001A600837BD4680BD80B582B000AF44F233
:10088000FC33C4F2020344F2FC32C4F202021268E6
:1008900042F008021A6044F2FC33C4F2020344F24C
:1008A000FC32C4F20202126822F002021A6044F220
:1008B000FC33C4F2020344F2FC32C4F202021268B6
:1008C00022F004021A6044F2FC33C4F2020344F240
:1008D000FC32C4F20202126822F010021A600023F5
:1008E0003B6002E03B6801333B603A6844F23F23DF
:1008F000C0F20F039A42F5D94FF4A860C0F2C010BD
:1009000000F0BEFAFFF7B2FC0C20FFF75BFD012000
:100910000121FFF713FE40F6F070C0F20000FFF770
:1009200045FE00237B6012E01E20FFF74BFD0023F5
:100930003B6002E03B6801333B603A6844F23F238E
:10094000C0F20F039A42F5D97B6801337B607B6864
:10095000272BE9DD00233B6002E03B6801333B606D
:100960003A6841F2FF13C0F27A039A42F5D90220A5
:100970000121FFF7E3FD40F6FC70C0F20000FFF735
:1009800015FE00237B6012E01E20FFF71BFD0023F5
:100990003B6002E03B6801333B603A6844F23F232E
:1009A000C0F20F039A42F5D97B6801337B607B6804
:1009B000272BE9DD00233B6002E03B6801333B600D
:1009C0003A6841F6FF23C0F2B7039A42F5D9FFF720
:1009D000E3FD44F2FC33C4F2020344F2FC32C4F2FD
:1009E0000202126822F008021A600837BD4680BD74
:1009F00080B582B000AF44F2FC33C4F2020344F28B
:100A0000FC32C4F20202126842F010021A6044F290
:100A1000FC33C4F2020344F2FC32C4F20202126854
:100A200022F002021A6044F2FC33C4F2020344F2E0
:100A3000FC32C4F20202126822F004021A6044F28C
:100A4000FC33C4F2020344F2FC32C4F20202126824
:100A500022F008021A6000233B6002E03B68013389
:100A60003B603A6844F23F23C0F20F039A42F5D943
:100A70004FF4A860C0F2C01000F002FAFFF7F6FBD6
:100A80000C20FFF79FFC01201021FFF757FD40F6D7
:100A9000F070C0F20000FFF789FD00237B6012E0D8
:100AA0001820FFF78FFC00233B6002E03B68013316
:100AB0003B603A6844F23F23C0F20F039A42F5D9F3
:100AC0007B6801337B607B68362BE9DD00233B606C
:100AD00002E03B6801333B603A6841F2FF13C0F229
:100AE0007A039A42F5D902201021FFF727FD40F63C
:100AF000FC70C0F20000FFF759FD00237B6012E09C
:100B00001820FFF75FFC00233B6002E03B680133E5
:100B10003B603A6844F23F23C0F20F039A42F5D992
:100B20007B6801337B607B68272BE9DD00233B601A
:100B300002E03B6801333B603A6841F6FF23C0F2B4
:100B4000B7039A42F5D9FFF727FD44F2FC33C4F20C
:100B5000020344F2FC32C4F20202126822F01002D4
:100B60001A600837BD4680BD80B582B000AFFFF780
:100B700031FD00F019FA0246D3179B0F1A4402F018
:100B80000302D31A7B607B68002B0ED1FFF760FD58
:100B900000233B6002E03B6801333B603A6840F66B
:100BA000FF03C0F23D039A42F5D97B68012B0ED1B9
:100BB000FFF7D8FD00233B6002E03B6801333B6058
:100BC0003A6840F6FF03C0F23D039A42F5D97B68CC
:100BD000022B0ED1FFF750FE00233B6002E03B6882
:100BE00001333B603A6840F6FF03C0F23D039A428E
:100BF000F5D97B68032B0ED1FFF7FAFE00233B608B
:100C000002E03B6801333B603A6840F6FF03C0F204
:100C10003D039A42F5D9ACE780B582B000AF41F20E
:100C20001003C0F200037B6040F20003C2F2000335
:100C30003B6007E03B681A1D3A607A68111D7960D5
:100C400012681A603A6840F22C43C2F200039A42DA
:100C5000F0D30D480D494FF000028842B8BF40F86C
:100C6000042BFADB4EF68853CEF200034EF6885280
:100C7000CEF20002126842F470021A60FFF774FFAD
:100C80000837BD4680BD00002C0400202C06002043
:100C900080B400AFFEE700BF80B400AFFEE700BF46
:100CA00080B400AFFEE700BFD0F8003412F0010FAF
:100CB00010B500F5806414BF0B438B43236012F022
:100CC000020FD0F8202400F5846314BF114322EAF8
:100CD0000101196010BDF0B5560906F003060024A5
:100CE00051FA04F515F0010F11D0D0F8C47F65005A
:100CF0004FF0030C0CFA05FC27EA0C07C0F8C47F80
:100D0000D0F8C47F16FA05F53D43C0F8C45F01343E
:100D1000082CE5D1D0F8004512F0010F00F5A065D0
:100D200014BF0C438C432C60D0F8045500F5A0642C
:100D300012F0020F04F1040414BF0D438D4325602B
:100D4000D0F8084512F0040F00F5A16514BF0C435C
:100D50008C432C60D0F8184512F0080F00F5A365FD
:100D600014BF0C438C432C60D0F83C4512F0100F9C
:100D700000F5A66202F10C0214BF0C438C43146010
:100D8000D0F80C4500F5A06213F0010F02F10C023F
:100D900014BF0C438C431460D0F8102513F0020FDD
:100DA00000F5A26414BF0A438A432260D0F81445B8
:100DB00000F5A26213F0040F02F1040214BF0C4309
:100DC0008C431460D0F81C4500F5A26213F0080FA4
:100DD00002F10C0214BF0C438C431460D0F844455C
:100DE00000F5A86213F4007F02F1040214BF0C4363
:100DF0008C431460D0F8402513F4407F00F5A864BC
:100E000014BF0A438A43226000F5A56223B9D0F8D3
:100E1000283543EA010103E0D0F8283523EA01012F
:100E20001160F0BD40F82120704770B50122082301
:100E300005460C46FFF74FFF284621460122BDE834
:100E40007040FFF731BF00000A4B00F47F4200F012
:100E5000FF0003EB1223800003F0704240F00070AB
:100E600023F07F43104323F4700340EA431301222D
:100E70001A60704700E60F400138FDD1704700004E
:100E80004149F0B5414E0D68346845F4006525F4DC
:100E9000800344F4006415F0010F0B60346016D039
:100EA00010F0010F13D160F001021340384A4FF4E3
:100EB000807515600B604FF4002201E0013A62D0AA
:100EC0003449096811F4807FF8D0002A5BD000F41F
:100ED000FE6223F4FE6330492D4E134324F000429A
:100EE00000EA010122F0700241EA020200F008016A
:100EF00042EAC102244C2549236000F400550A60EF
:100F000023F4005322F400522B4340272A43376036
:100F10004EBF0A6023600A60204948BF236023F067
:100F2000F86300EA010123F001030B4322F0FC52B5
:100F300000F0FC5110F0804F42EA010208D018493D
:100F400022F4800200EA010143F480030A4301E035
:100F500022F0804210F4006F0CD14FF40041114890
:100F6000006810F0010F01D10139F8D123F40063BA
:100F700022F4006204490B60044B10201A60BDE8A3
:100F8000F040FFF779BFF0BD60E00F4070E00F4028
:100F900058E00F4050E00F40300000800100C007D3
:100FA0000000404068E10F4010B440F22843C2F214
:100FB00000034FF22D401968D1F8A820D1F8AC40B9
:100FC000C5F6510047F62D7300FB02F0C4F69543B9
:100FD00003FB0404A2FB03232344013243F1000377
:100FE000C1E92A2323F000405DF8044B704700BF9D
:100FF0004B6F6361656C6920556E69004265726B69
:10100000617920426F7374616E000000430000003C
:1010100000000000EC02002054030020BC0300206C
:1010200000000000000000000000000000000000C0
:1010300000000000000000000000000000000000B0
:10104000000000000C100000000000000000000084
:101050000000000000000000000000000000000090
:101060000000000000000000000000000000000080
:101070000000000000000000000000000000000070
:101080000000000000000000000000000000000060
:101090000000000000000000000000000000000050
:1010A0000000000000000000000000000000000040
:1010B000000000000000000001000000000000002F
:1010C0000E33CDAB34126DE6ECDE05000B000000F4
:1010D0000000000000000000000000000000000010
:1010E0000000000000000000000000000000000000
:1010F00000000000000000000000000000000000F0
:1011000000000000000000000000000000000000DF
:0C14300000000000000000000000002090
:00000001FF
